:040000005BEF00F0C2
:100008005E82F2A40AEF00F00CEF00F013EF00F0AC
:1000180000016A2BF2947C0ED66EE10ED76E9EA07C
:1000280018EF00F01AEF00F059EF00F000016951E5
:10003800D8A421EF00F023EF00F033EF00F0898817
:10004800040E016E3E0EE82EFED7012EFCD78998CD
:100058009E90AF0ECE6EED0ECF6E59EF00F0690593
:10006800D8A439EF00F03BEF00F04AEF00F08988A0
:10007800040E016EE40EE82EFED7012EFCD700D048
:1000880089989E90710ECE6E2FEF00F08988050E2C
:10009800016E8A0EE82EFED7012EFCD700D0899873
:1000A8009E902C0ECE6EEE0ECF6E5E92110075EF06
:0200B80011F045
:10080000005061726120636F6D656E7A61722020A5
:10081000200050726573696F6E6120494E494349EB
:100820004F2000204369636C6F20656E2050617516
:1008300073612000483A25642E25642020543A250F
:10084000642E2564004369636C6F2043616E6365A9
:100850006C61646F0050756C736120494E49434967
:100860004F0020494E494349414E444F20002564E2
:100870003A25643A25643A25640046494E414C497C
:100880005A41444100494E4355424143494F4E006D
:10089000494E4355564143494F4E0053616C69657B
:0508A0006E646F000012
:1008A600060E0001A46F130EA36FAD0EE82EFED741
:1008B600A32FFCD7A42FFAD700D092EC10F0D59E28
:1008C600CD90F9EC0FF07C0ED66EE10ED76E770E5A
:1008D600CE6EEC0ECF6E000E0001A56F000E83ECFF
:1008E60011F00001686F6805D8A47CEF04F07EEF74
:1008F60004F090EF04F0010E83EC11F000016B6F31
:10090600020E83EC11F000016C6F030E83EC11F004
:100916005D6E010E0001A56FD58E8B7080B296EFCD
:1009260004F098EF04F018EF05F00001A505D8B41F
:100936009FEF04F0A1EF04F018EF05F0010EA56F8C
:10094600010ED7EC10F00D0E0001A36FFB0EE82E82
:10095600FED7A32FFCD700D0800ED7EC10F0030EE5
:100966000001A36F970EE82EFED7A32FFCD700D069
:10097600620E00018D6F080E8E6F4DEC11F0C00EE9
:10098600D7EC10F0030E0001A36F970EE82EFED7EA
:10099600A32FFCD700D0900E00018D6F080E8E6F2E
:1009A6004DEC11F00B0E0001A46F260EA36F5D0E29
:1009B600E82EFED7A32FFCD7A42FFAD700D0010E1E
:1009C600D7EC10F00D0E0001A36FFB0EE82EFED73C
:1009D600A32FFCD700D0D58E000E83EC11F00001BA
:1009E600686F010E026E000E61EC11F00001685195
:1009F600D8A400EF05F002EF05F070EF06F0010E47
:100A0600026E000E61EC11F0000E026E010E61EC3A
:100A160011F0000E026E020E61EC11F0000E026E75
:100A2600030E61EC11F070EF06F080B41DEF05F0D7
:100A36001FEF05F048EF05F00001A505D8A426EF45
:100A460005F028EF05F048EF05F0020EA56FD59EDC
:100A5600010ED7EC10F00D0E0001A36FFB0EE82E71
:100A6600FED7A32FFCD700D06BC002F0010E61ECBD
:100A760011F06CC002F0020E61EC11F05DC002F0E4
:100A8600030E61EC11F070EF06F080B64DEF05F045
:100A96004FEF05F082EF05F00001A505D8B456EF3B
:100AA60005F058EF05F061EF05F0020EA519D8A480
:100AB6005FEF05F061EF05F082EF05F0030EA56F1D
:100AC600D59E000E6C6F000E6B6F000E5D6E000EF5
:100AD6006A6F000E026E000E61EC11F0000E026EDF
:100AE600010E61EC11F0000E026E020E61EC11F0C7
:100AF600000E026E030E61EC11F070EF06F070EF5F
:100B060006F0800ED7EC10F0030E0001A36F970ECF
:100B1600E82EFED7A32FFCD700D0120E00018D6F52
:100B2600080E8E6F4DEC11F0C00ED7EC10F0030ED0
:100B36000001A36F970EE82EFED7A32FFCD700D097
:100B4600010E00018D6F080E8E6F4DEC11F08EEFC9
:100B560006F04FEC0FF0150E5D18D8A4B5EF05F0B2
:100B6600B7EF05F08EEF06F0D59E000E0001A56FDB
:100B7600010ED7EC10F00D0E0001A36FFB0EE82E50
:100B8600FED7A32FFCD700D0800ED7EC10F0030EB3
:100B96000001A36F970EE82EFED7A32FFCD700D037
:100BA600850E00018D6F080E8E6F4DEC11F0C00E94
:100BB600D7EC10F0030E0001A36F970EE82EFED7B8
:100BC600A32FFCD700D07A0E00018D6F080E8E6F12
:100BD6004DEC11F0000E026E000E61EC11F0000EED
:100BE6005D6E000E00016C6F000E6B6F000E6A6F7B
:100BF60080A600EF06F002EF06F0FBEF05F08EEFA1
:100C060006F0800ED7EC10F0030E0001A36F970ECE
:100C1600E82EFED7A32FFCD700D0230E00018D6F40
:100C2600080E8E6F4DEC11F0C00ED7EC10F0030ECF
:100C36000001A36F970EE82EFED7A32FFCD700D096
:100C4600550E00018D6F080E8E6F4DEC11F08EEF74
:100C560006F0010ED7EC10F00D0E0001A36FFB0E8F
:100C6600E82EFED7A32FFCD700D0800ED7EC10F0CD
:100C7600030E0001A36F970EE82EFED7A32FFCD715
:100C860000D0450E00018D6F080E8E6F4DEC11F0F1
:100C9600C00ED7EC10F0030E0001A36F970EE82EDE
:100CA600FED7A32FFCD700D09B0E00018D6F080E38
:100CB6008E6F4DEC11F0150E0001A46F4B0EA36F55
:100CC600BE0EE82EFED7A32FFCD7A42FFAD700F02E
:100CD600000E0001A56F8EEF06F00001A551A36F6F
:100CE600A46BA451000AD8B47BEF06F08EEF06F091
:100CF600A351000AD8B484EF05F0010AD8B4ACEFCA
:100D060005F0030AD8B404EF06F0010AD8B42CEFB4
:100D160006F08EEF06F00B0E0001A46F260EA36FF1
:100D26005D0EE82EFED7A32FFCD7A42FFAD700D04E
:100D360090EF04F05BEF00F022C03AF023C03BF0E6
:100D460024C03CF025C03DF026C03EF027C03FF051
:100D560028C040F029C041F041BEB4EF06F0B7EF1D
:100D660006F0010EB8EF06F0000E386E396A3850FC
:100D76003910D8B4C1EF06F0C3EF06F0D3EF06F092
:100D8600411E401E3F1E3E1E3D1E3C1E3B1E3A6C33
:100D9600000E3B223C223D223E223F22402241229F
:100DA600000165BFD9EF06F0DBEF06F0DCEF06F0D9
:100DB600669365BFE9EF06F0655106E16405D8B0B4
:100DC600E7EF06F0E9EF06F0EFEF06F0000E356EFE
:100DD600010E346EF3EF06F064C034F065C035F0F2
:100DE60062C036F063C037F038503910D8A4FEEF31
:100DF60006F000EF07F007EF07F066A505EF07F02E
:100E060007EF07F00AEF07F03606D8A03706000E00
:100E1600436E1F0E426E000E8C6F8EEF07F0420679
:100E2600D8A043066D0E4224D96E000E4320DA6E1A
:100E36003AC002F03BC003F03CC004F03DC005F0F0
:100E46003EC006F03FC007F040C008F041C009F0C0
:100E56000A0E0A6E000E0B6E000E0C6E000E0D6E64
:100E6600000E0E6E000E0F6E000E106E000E116E4E
:100E760056EC0DF002C02AF003C02BF004C02CF093
:100E860005C02DF006C02EF007C02FF008C030F0C8
:100E960009C031F02AC014F02CC015F0F8EC10F09F
:100EA6001450300FDF6E3406D8A035063606D8A0AB
:100EB60037063AC002F03BC003F03CC004F03DC028
:100EC60005F03EC006F03FC007F040C008F041C044
:100ED60009F00A0E0A6E000E0B6E000E0C6E000E66
:100EE6000D6E000E0E6E000E0F6E000E106E000ED2
:100EF600116E92EC0CF002C03AF003C03BF004C055
:100F06003CF005C03DF006C03EF007C03FF008C00B
:100F160040F009C041F043BE99EF07F0435008E1A5
:100F26004204D8A099EF07F09BEF07F0CCEF07F04B
:100F36003A503B103C103D103E103F1040104110FF
:100F4600D8A4A8EF07F0AAEF07F012EF07F035BE16
:100F5600B7EF07F0355006E13404D8B0B5EF07F027
:100F6600B7EF07F012EF07F037BEC2EF07F03750C2
:100F760008E13604D8A0C2EF07F0C4EF07F0CCEFC3
:100F860007F0000166B3CAEF07F0CCEF07F012EFE7
:100F960007F038503910D8A4D3EF07F0D5EF07F093
:100FA600DDEF07F0000166A5DBEF07F0DDEF07F0E8
:100FB600FBEF07F04206D8A0430638503910D8A4F4
:100FC600E7EF07F0E9EF07F0EFEF07F0000E336EFB
:100FD6002B0E326EF3EF07F0000E336E2D0E326ECF
:100FE6006D0E4224D96E000E4320DA6E32C0DFFF4A
:100FF60020C015F021C016F06D0E4224176E000EAB
:101006004320186E36C019F037C01AF08AEC0EF07D
:1010160015C020F016C021F01200296E000E056ED4
:10102600640E046E26C002F0036AEDEC0EF0255045
:10103600276E286A025027260350282227C00AF066
:1010460028C00BF0000E0BBEFF0E0C6E0D6E010ECF
:10105600DEEC0AF00AC018F00BC019F00CC01AF04A
:101066000DC01BF0000E1C6E000E1D6E100E1E6EC7
:10107600420E1F6E08EC0EF0D8B044EF08F046EFB3
:1010860008F049EF08F0898A7FEF08F0000E186E25
:10109600000E196E180E1A6E420E1B6E000E056EAD
:1010A600640E046E26C002F0036AEDEC0EF02550C5
:1010B600276E286A025027260350282227C00AF0E6
:1010C60028C00BF0000E0BBEFF0E0C6E0D6E010E4F
:1010D600DEEC0AF00AC01CF00BC01DF00CC01EF0BE
:1010E6000DC01FF008EC0EF0D8B07CEF08F07EEFD4
:1010F60008F07FEF08F0899A000E186E000E196E40
:10110600700E1A6E420E1B6E000E056E640E046E95
:1011160024C002F0036AEDEC0EF02950276E286A0F
:10112600025027260350282227C00AF028C00BF0B9
:10113600000E0BBEFF0E0C6E0D6E010EDEEC0AF0FD
:101146000AC01CF00BC01DF00CC01EF00DC01FF035
:1011560008EC0EF0D8B0B2EF08F0B4EF08F0BFEF2D
:1011660008F0130E5D60BAEF08F0BCEF08F0BFEFB1
:1011760008F0898C7FEF09F0000E056E640E046E90
:1011860024C002F0036AEDEC0EF02950276E286A9F
:10119600025027260350282227C00AF028C00BF049
:1011A600000E0BBEFF0E0C6E0D6E010EDEEC0AF08D
:1011B6000AC018F00BC019F00CC01AF00DC01BF0D5
:1011C600000E1C6E000E1D6E5C0E1E6E420E1F6E15
:1011D60008EC0EF0D8B0F2EF08F0F4EF08F0FFEFED
:1011E60008F0130E5D60FAEF08F0FCEF08F0FFEF71
:1011F60008F0899C7FEF09F0000E056E640E046E00
:1012060024C002F0036AEDEC0EF02950276E286A1E
:10121600025027260350282227C00AF028C00BF0C8
:10122600000E0BBEFF0E0C6E0D6E010EDEEC0AF00C
:101236000AC018F00BC019F00CC01AF00DC01BF054
:10124600000E1C6E000E1D6E7C0E1E6E420E1F6E74
:1012560008EC0EF0D8B032EF09F034EF09F03FEFAA
:1012660009F0120E5D643AEF09F03CEF09F03FEF2A
:1012760009F0899C7FEF09F0000E186E000E196EBA
:10128600820E1A6E420E1B6E000E056E640E046E02
:1012960024C002F0036AEDEC0EF02950276E286A8E
:1012A600025027260350282227C00AF028C00BF038
:1012B600000E0BBEFF0E0C6E0D6E010EDEEC0AF07C
:1012C6000AC01CF00BC01DF00CC01EF00DC01FF0B4
:1012D60008EC0EF0D8B072EF09F074EF09F07FEF6A
:1012E60009F0120E5D647AEF09F07CEF09F07FEFEA
:1012F60009F0898C7FEF09F01200000E00019E6F45
:10130600000E9F6F000EA06F000EA16F000E9D6F66
:1013160092908990340E0001996FF10EE82EFED757
:10132600992FFCD700D089800D0EE82EFED700F04D
:1013360092801A0EE82EFED700D080B0A5EF09F0F5
:10134600A7EF09F0DDEF0AF0280EE82EFED780A001
:10135600AFEF09F0B1EF09F0DDEF0AF0320EE82E3B
:10136600FED7000E0001A26F80A0BCEF09F0BEEF11
:1013760009F0B7EF09F0140EE82EFED780A0C6EFED
:1013860009F0C8EF09F0CDEF09F0D88000019E37CB
:10139600D1EF09F000019E519E259E6F80B0D6EFD9
:1013A60009F0D8EF09F0D1EF09F00001A22B070EE2
:1013B600A265E0EF09F0E2EF09F0B7EF09F0000EE1
:1013C600A26F80A0E9EF09F0EBEF09F0E4EF09F076
:1013D600140EE82EFED780A0F3EF09F0F5EF09F022
:1013E600FAEF09F0D88000019F37FEEF09F00001FF
:1013F6009F519F259F6F80B003EF0AF005EF0AF01B
:10140600FEEF09F00001A22B070EA2650DEF0AF010
:101416000FEF0AF0E4EF09F0000EA26F80A016EFBE
:101426000AF018EF0AF011EF0AF0140EE82EFED7B4
:1014360080A020EF0AF022EF0AF027EF0AF0D8800A
:101446000001A0372BEF0AF00001A051A025A06FE4
:1014560080B030EF0AF032EF0AF02BEF0AF000010D
:10146600A22B070EA2653AEF0AF03CEF0AF011EF45
:101476000AF0000EA26F80A043EF0AF045EF0AF0D3
:101486003EEF0AF0140EE82EFED780A04DEF0AF0CC
:101496004FEF0AF054EF0AF0D8800001A13758EF59
:1014A6000AF00001A151A125A16F80B05DEF0AF0FD
:1014B6005FEF0AF058EF0AF00001A22B070EA265B3
:1014C60067EF0AF069EF0AF03EEF0AF0000EA26F2E
:1014D60080A070EF0AF072EF0AF06BEF0AF0140EBC
:1014E600E82EFED780A07AEF0AF07CEF0AF081EFB3
:1014F6000AF0D88000019D3785EF0AF000019D5162
:101506009D259D6F80B08AEF0AF08CEF0AF085EF7B
:101516000AF00001A22B070EA26594EF0AF096EFDF
:101526000AF06BEF0AF09D51996F9A6B9F519EC01E
:101536009BF09C6B9B27000E9C23A0519B27000EC3
:101546009C23A1519B27000E9C2399519B1907E1CF
:101556009A519C19D8A4B2EF0AF0B4EF0AF0DDEF65
:101566000AF0C00ED7EC10F0030E0001996F970E2B
:10157600E82EFED7992FFCD700D0340E00018D6FD0
:10158600080E8E6F9EC08FF0906B9FC091F0926B8D
:10159600A0C093F0946BA1C095F0966B4DEC11F042
:1015A6009FC024F0A0C025F0A1C026F000019E51E6
:1015B60010EC08F01200126E1250D8B4E5EF0AF0E3
:1015C600E7EF0AF009EF0BF00DBEEEEF0AF0ECEFD5
:1015D6000AF009EF0BF00AC00EF00BC00FF00CC0BA
:1015E60010F00DC011F00E1E0F1E101E111E0E2A39
:1015F600000E0F22102211220EC014F00FC015F09B
:1016060010C016F011C017F011EF0BF00AC014F05D
:101616000BC015F00CC016F00DC017F00A500B10D9
:101626000C100D10D8A41AEF0BF01CEF0BF026EFE0
:101636000BF0000E0A6E000E0B6E000E0C6E000E06
:101646000D6EB7EF0BF0960E136E30EF0BF0132AFC
:10165600D8901732163215321432000E14140E6E4C
:10166600000E15140F6E000E1614106EFE0E1714D3
:10167600116E0E500F1010101110D8A445EF0BF07C
:1016860047EF0BF02AEF0BF055EF0BF0132A010E84
:101696001426000E152216221722D890173216325B
:1016A60015321432000E14140E6E000E15140F6E41
:1016B600000E1614106EFF0E1714116E0E500F103A
:1016C60010101110D8A46AEF0BF06CEF0BF049EF75
:1016D6000BF074EF0BF01306D89014361536163649
:1016E600173616BE79EF0BF07BEF0BF083EF0BF09E
:1016F600020E136081EF0BF083EF0BF06EEF0BF031
:1017060013B088EF0BF08AEF0BF08BEF0BF0169E01
:10171600D890133213C00EF00F6A106A116A0EC009
:1017260011F0106A0F6A0E6A0E5014120F5015123D
:1017360010501612115017121250D8B4A5EF0BF014
:10174600A7EF0BF0AFEF0BF00DBEAEEF0BF0ACEF6B
:101756000BF0AFEF0BF0178E14C00AF015C00BF0AC
:1017660016C00CF017C00DF0120046C0D9FF47C0D6
:10177600DAFFDECFF6FFDDCFF7FF0800F550250ACA
:10178600D8A4C8EF0BF0CAEF0BF076EF0CF046C00A
:10179600D9FF47C0DAFFDE2A000EDD22000E000167
:1017A600636F000E626F62C066F063C067F06469C3
:1017B600656946C0D9FF47C0DAFFDECFF6FFDDCF49
:1017C600F7FF0800F550640AD8B4ECEF0BF0EEEF23
:1017D6000BF000EF0CF046C0D9FF47C0DAFFDECFB2
:1017E600F6FFDDCFF7FF0800F550690AD8A4FEEF33
:1017F6000BF000EF0CF040EF0CF046C0D9FF47C0ED
:10180600DAFFDE2A000EDD2248C0D9FF49C0DAFF22
:10181600DFCF4AF0020EDE26DFCF4BF0000EDD22D0
:101826004AC0D9FF4BC0DAFFDECF4CF0DDCF4DF01A
:10183600000E4DBEFF0E4E6E4F6E506E516E526EC6
:10184600536E44C020F045C021F04CC022F04DC07C
:1018560023F04EC024F04FC025F050C026F051C0F2
:1018660027F052C028F053C029F09FEC06F020C0A4
:1018760044F021C045F091EF0CF046C0D9FF47C0B7
:10188600DAFFDECFF6FFDDCFF7FF0800F550250AB9
:10189600D8A450EF0CF052EF0CF069EF0CF046C0F4
:1018A600D9FF47C0DAFFDE2A000EDD22000E066EE3
:1018B600250E056E44C007F045C008F0AEEC0FF0EB
:1018C600000E456E010E446E91EF0CF046C0D9FF36
:1018D60047C0DAFFDE2A000EDD22000E456E000E3E
:1018E600446E91EF0CF046C0D9FF47C0DAFFDECF59
:1018F600F6FFDDCFF7FF0800F550056E066A44C017
:1019060007F045C008F0AEEC0FF046C0D9FF47C05F
:10191600DAFFDE2A000EDD2263EF0CF01200000E65
:10192600136E11BE9BEF0CF099EF0CF0ADEF0CF0BF
:10193600111E101E0F1E0E1E0D1E0C1E0B1E0A6CF7
:10194600000E0B220C220D220E220F221022112233
:10195600010E136E09BEB4EF0CF0B2EF0CF0C6EF39
:101966000CF0091E081E071E061E051E041E031E79
:10197600026C000E032204220522062207220822F8
:101986000922010E131A20EE14F0070EDE6AE8068D
:10199600FDE20A500B100C100D100E100F10101057
:1019A6001110D8B4D9EF0CF0DBEF0CF02DEF0DF0E1
:1019B600010E126EE9EF0CF0D8900A360B360C3693
:1019C6000D360E360F3610361136122A11AEEEEFE0
:1019D6000CF0F0EF0CF0DFEF0CF0D8901436153663
:1019E60016361736183619361A361B360A50025C62
:1019F6000B5003580C5004580D5005580E500658FD
:101A06000F5007581050085811500958D8A00EEF1B
:101A16000DF010EF0DF021EF0DF00A50025E0B50A5
:101A2600035A0C50045A0D50055A0E50065A0F50C0
:101A3600075A1050085A1150095A1480D89011327A
:101A460010320F320E320D320C320B320A32122E97
:101A5600F0EF0CF01350D8B433EF0DF035EF0DF076
:101A660045EF0DF01B1E1A1E191E181E171E161EF8
:101A7600151E146C000E1522162217221822192282
:101A86001A221B2214C002F015C003F016C004F07F
:101A960017C005F018C006F019C007F01AC008F004
:101AA6001BC009F01200000E136E09BE5FEF0DF0A9
:101AB6005DEF0DF071EF0DF0091E081E071E061EE4
:101AC600051E041E031E026C000E032204220522BC
:101AD6000622072208220922010E136E11BE78EF94
:101AE6000DF076EF0DF088EF0DF0111E101E0F1E93
:101AF6000E1E0D1E0C1E0B1E0A6C000E0B220C2257
:101B06000D220E220F22102211220A500B100C1049
:101B16000D100E100F1010101110D8B495EF0DF017
:101B260097EF0DF0DFEF0DF0010E126EA5EF0DF041
:101B3600D8900A360B360C360D360E360F36103662
:101B46001136122A11AEAAEF0DF0ACEF0DF09BEF95
:101B56000DF00A50025C0B5003580C5004580D50FF
:101B660005580E5006580F50075810500858115077
:101B76000958D8A0C1EF0DF0C3EF0DF0D3EF0DF06B
:101B86000A50025E0B50035A0C50045A0D50055A67
:101B96000E50065A0F50075A1050085A1150095A3B
:101BA600D890113210320F320E320D320C320B3207
:101BB6000A32122EACEF0DF01350D8B4E5EF0DF04B
:101BC600E7EF0DF0F7EF0DF0091E081E071E061EC3
:101BD600051E041E031E026C000E032204220522AB
:101BE600062207220822092202C002F003C003F0DF
:101BF60004C004F005C005F006C006F007C007F0F3
:101C060008C008F009C009F01200000E1814206E72
:101C1600000E1914216E800E1A14226E7F0E1B14EC
:101C2600236E2050211022102310D8A41DEF0EF091
:101C36001FEF0EF027EF0EF0000E186E000E196E55
:101C4600000E1A6E000E1B6E000E1C14206E000E87
:101C56001D14216E800E1E14226E7F0E1F14236E1D
:101C66002050211022102310D8A43CEF0EF03EEF96
:101C76000EF046EF0EF0000E1C6E000E1D6E000EEE
:101C86001E6E000E1F6E1BAE4BEF0EF04DEF0EF0EC
:101C960056EF0EF0186C191ED8B0192A1A1ED8B0B5
:101CA6001A2A800E1B561FAE5BEF0EF05DEF0EF08C
:101CB60066EF0EF01C6C1D1ED8B01D2A1E1ED8B075
:101CC6001E2A800E1F56000E181A000E191A000E34
:101CD6001A1A800E1B1A000E1C1A000E1D1A000E70
:101CE6001E1A800E1F1A1C50185C1D5019581E50C3
:101CF6001A581F501B58D8B083EF0EF085EF0EF020
:101D060088EF0EF0D89089EF0EF0D880120000010F
:101D160066A190EF0EF092EF0EF09CEF0EF017C05A
:101D26000EF018C00FF015C010F016C011F0B5EC8B
:101D360010F01ABEA1EF0EF0A3EF0EF0A9EF0EF011
:101D460019C01EF01AC01FF0ADEF0EF0000E1F6E88
:101D5600000E1E6E000E1D6E000E1C6EBFEF0EF006
:101D6600000E066E200E056E15C007F016C008F0B0
:101D7600AEEC0FF01C4A1D2A1E501C5C1D50800A3A
:101D86001B6E1F50800A1B58D8A0CCEF0EF0CEEF6A
:101D96000EF0B3EF0EF0000166B1D4EF0EF0D6EF01
:101DA6000EF0E0EF0EF017C00EF018C00FF015C0E1
:101DB60010F016C011F0B5EC10F017C002F018C004
:101DC60003F018EC11F01E500224156E1F5003206C
:101DD600166E1200000E076E05BEF6EF0EF0F4EF5B
:101DE6000EF0FCEF0EF0046C051ED8B0052A010EAD
:101DF600076E03BE03EF0FF001EF0FF009EF0FF0D0
:101E0600026C031ED8B0032A010E071A000E096ED3
:101E1600000E086E04500510D8B414EF0FF016EF3C
:101E26000FF03EEF0FF0010E066E1EEF0FF0D8908A
:101E360004360536062A05AE23EF0FF025EF0FF020
:101E46001AEF0FF0D890083609360450025C055098
:101E56000358D8A031EF0FF033EF0FF038EF0FF043
:101E66000450025E0550035A0880D89005320432A9
:101E7600062E25EF0FF00750D8B444EF0FF046EFCB
:101E86000FF04AEF0FF0086C091ED8B0092A08C0F7
:101E960002F009C003F012003B0E00016A6556EF1E
:101EA6000FF058EF0FF08EEF0FF0010ED7EC10F099
:101EB6000D0E5C6EFC0EE82EFED75C2EFCD70001E4
:101EC6006B2B000E6A6F3B0E6B656CEF0FF06EEFBF
:101ED6000FF08EEF0FF06C2B000E6B6F33EC11F0E2
:101EE6006BC002F0010E61EC11F06CC002F0020E44
:101EF60061EC11F05DC002F0030E61EC11F0170EFB
:101F060000016C6589EF0FF08BEF0FF08EEF0FF08D
:101F16005D2A000E6C6F800ED7EC10F0030E5C6E1F
:101F2600980EE82EFED75C2EFCD76E0E00018D6F44
:101F3600080E8E6F5DC08FF0906B6CC091F0926B47
:101F46006BC093F0946B6AC095F0966B4DEC11F0F4
:101F560080EC09F0120007500810D8B4B5EF0FF066
:101F6600B7EF0FF0C0EF0FF007500810D8A4BEEF80
:101F76000FF0C0EF0FF0C5EF0FF005506FEC10F04B
:101F8600F8EF0FF020EE04F00750D9260850DA22B9
:101F9600DE50DE10D8B4D2EF0FF0D4EF0FF0EFEF33
:101FA6000FF020EE04F00750D9260850DA2210EE82
:101FB60002F00750E1260850E222DE50E65CE650C9
:101FC600800A0D6EDE50800A0D58D8B0EDEF0FF086
:101FD600EFEF0FF0F8EF0FF020EE02F00750D926E2
:101FE6000850DA22DE2A000EDD2212004E0E056EA1
:101FF600EB0EE82EFED7052EFCD700F0020ED7EC2E
:1020060010F0030E056E980EE82EFED7052EFCD7AF
:10201600280ED7EC10F0030E056E980EE82EFED7AC
:10202600052EFCD72C0ED7EC10F0030E056E980E7D
:10203600E82EFED7052EFCD70C0ED7EC10F0030EBB
:10204600056E980EE82EFED7052EFCD7060ED7ECA9
:1020560010F0030E056E980EE82EFED7052EFCD75F
:10206600800ED7EC10F0030E056E980EE82EFED704
:10207600052EFCD7120056C05AF057C05BF0000E72
:102086000001616F000E606F5CEF10F054C044F009
:1020960055C045F05A0E466E000E476E58C048F0C1
:1020A60059C049F0B8EC0BF0445000016027455088
:1020B60061235AC0F6FF5BC0F7FF0800F550000920
:1020C600D8A468EF10F06AEF10F049EF10F060C086
:1020D60054F061C055F01200036E0350F00B046E0D
:1020E600045005098C6E060EE82EFED700D004506B
:1020F60001098C6E030E026E980EE82EFED7022E94
:10210600FCD70338F00B046E045005098C6E060EDE
:10211600E82EFED700D0045001098C6E1200000E86
:10212600956E000E0F015E6F0E0E926E000E5B6FC7
:10213600000E936E000E5C6F000E946E000E5D6FC7
:10214600870ED56EA00EF26ED09E630ED36E370E3E
:10215600CD6E770ECE6EEC0ECF6E010E9D6EA69EE8
:10216600A69C1200000E146E000E136EC6EF10F041
:1021760012C005F0066A10C007F011C008F0AEECF8
:102186000FF0134A142A13500E24D96E14500F2040
:10219600DA6EDF50126E1250D8A4D4EF10F0D6EFDC
:1021A60010F0BBEF10F01200036E0350F00B046E3C
:1021B600045004098C6E060EE82EFED700D004C02B
:1021C6008CFF030E026E980EE82EFED7022EFCD769
:1021D6000338F00B046E045004098C6E060EE82ECC
:1021E600FED700D004C08CFF120015BE05EF11F01B
:1021F600155006E11404D8B003EF11F005EF11F005
:1022060013EF11F014C016F015C017F0161E171EA6
:10221600164A172A16C014F017C015F017EF11F05A
:1022260014C014F015C015F0120002C004F003C06B
:1022360005F020EF11F0024A032A02C0D9FF03C0BD
:10224600DAFFDF50D8A42AEF11F02CEF11F01EEFC1
:1022560011F00450025C026E05500358036E120022
:10226600D59E0001692BCD804E0E026EEB0EE82E38
:10227600FED7022EFCD700F0CD90020E0001696554
:1022860047EF11F049EF11F04BEF11F0000E696FB7
:10229600D58E12008F0E0001976F000E986F000EFC
:1022A600546E000E556E8DC056F08EC057F0970EC8
:1022B600586E000E596E3EEC10F01200036E03C00D
:1022C600A9FF02C0A8FFA684550EA76EAA0EA76E88
:1022D600A682A6B271EF11F073EF11F06CEF11F058
:1022E600A694120000EE60F02D0EEE6AE806FDE1FF
:1022F6005D6A5E905E92000EF86E000153EF04F088
:10230600026E02C0A9FFA680A6B08CEF11F08EEF78
:0A23160011F087EF11F0A85012003B
:020000040020DA
:08000000FFFFFFFFFFFFFFFF00
:020000040030CA
:0E00000000285F3CFFD381FF0FC00FE00F40D0
:00000001FF
